:020000040000fa
:080000003c02040000000000b6
:020000040000fa
:100008006a48000010480000124800001448000028
:10001800164800006a4800006a4800006a48000064
:10002800184800001a4800001c4800003002000070
:100038006a480000204800002248000024480000c8
:1000480026480000284800002a4800002c480000e4
:100058002e480000304800006a4800006a48000046
:100068003248000034480000364800003848000094
:100078003a4800006a4800006a4800006a480000e0
:100088006a4800003c4800003e4800004048000024
:100098004248000044480000464800004848000024
:1000a8004a4800004c4800006a4800006a480000be
:1000b8006a4800004e4800005048000052480000be
:1000c8006a480000544800006a4800006a48000076
:1000d8006a480000564800006a4800006a48000064
:1000e8006a480000584800005a4800006a48000062
:1000f8006a4800006a4800006a4800006a48000030
:100108006a4800006a4800006a4800006a4800001f
:100118006a4800006a4800005c4800006a4800001d
:100128006a4800005e48000060480000624800001d
:100138006a4800006a4800006a4800006a480000ef
:10014800644800006a4800006a4800006a480000e5
:100158006a480000664800006a4800006a480000d3
:100168006a4800006a4800006a4800006a480000bf
:0c0178006a4800006a48000036020000df
:020000040000fa
:1002080000000000000000000000000000000000e6
:1002180000000000000000000000000000000000d6
:100228000000000000000000000000005042000034
:1002380000000000000000000000000000000000b6
:1002480000000000000000000000000000000000a6
:100258000000000000000000000000000000000096
:100268000000000000000000000000000000000086
:100278000000000000000000000000000000000076
:100288000000000000000000000000000000000066
:100298000000000000000000000000000000000056
:1002a8000000000000000000000000000000000046
:1002b8000000000000000000000000000000000036
:1002c8000000000000000000000000000000000026
:1002d8000000000000000000000000000000000016
:1002e8000000000000000000000000000000000006
:1002f80000000000000000000000000000000000f6
:1003080000000000000000000000000000000000e5
:1003180000000000000000000000000000000000d5
:1003280000000000000000000000000000000000c5
:1003380000000000000000000000000000000000b5
:1003480000000000000000000000000000000000a5
:100358000000000000000000000000000000000095
:100368000000000000000000000000000000000085
:10037800000000000000000004030000000000006e
:100388000000000000000000000000000000000065
:100398000000000000000000000000000000000055
:1003a8000000000000000000000000000000000045
:1003b8000000000000000000000000000000000035
:1003c8000000000000000000000000000000000025
:1003d8000000000000000000000000000000000015
:1003e8000000000000000000000000000000000005
:0803f8000000000000000000fd
:020000040000fa
:10040000004800000080000000a00000f8ab0000e1
:020000040000fa
:10041000000000000c4800000080000000a0000068
:08042000f8ab000000ac000085
:020000040000fa
:1004280000000000004800000080000000a000005c
:020000040000fa
:10043800004800000c480000feab000000ac0000c3
:020000040000fa
:10044800f8ab00000c00000033ff0000c0ff000004
:080458008e3b0000603f000034
:020000040000fa
:10046000680aaf00f52237000d203700682aaf0078
:08047000172337006400370078
:020000040000fa
:100478008f5e21000e7f22000e0188000000000020
:10048800000020000000e00002003200000120000f
:1004980020028800140007008a0007000000e0001e
:1004a80003003a0040ff200001002000020037004e
:1004b8000000200001002000810f700001003200c0
:1004c80014000700000020000000e00002003200d5
:1004d80000000200000000004c4302000000000081
:1004e8000040da000000fe004440a900400520005a
:1004f8000000e0000300320010002000a001880086
:100508004440a800000006008a1f78008b1f78006e
:100518000000060091018800800478000000eb00cc
:100528001a003700e284440032a0b4009905ba00ea
:10053800e284440032a0b4009906ba00e284440080
:1005480032a0b4000006eb00476fde00fd07b200e2
:10055800636ce10003003a00ebff07000000eb00ca
:100568000a003700606ce10004003a00005deb000f
:100578008b05e900fdff3e00040037006168e100db
:10058800010032000086eb000b00070019c7ba0013
:100598001905ba000e04e00003003a000a00e00062
:1005a800e0ff3a0000000600fe07b2009e01880046
:1005b8008a047800f5ff3700395dba008b05e90039
:1005c8000c003200295dba008b05e90008003200f2
:1005d8000c00e00003003a00e284440032a0b400ba
:1005e800f5ff370019ddba008b05e900faff3a007c
:1005f8008904e800e184440032a0b4000000060049
:100608003600f800809fbe00829fbe00849fbe0017
:10061800869fbe003400f80010002000a00188006a
:10062800fe4407003400f9004f03be004f02be002d
:100638004f01be004f00be003600f9000040060022
:10064800889fbe0080047800a07c80000000e00045
:1006580004003a000e0007000084eb000000e000f0
:1006680008003500a87c80000900e0000500320081
:1006780009004400060007000000e00001003d00fa
:100688000084eb00080078004f04be00000006005c
:10069800800078000100e00003003a0000202100fb
:1006a800a07c8800000005000080eb00825e21002d
:1006b800828f500002003e00a17c88000000eb0001
:1006c80000000600000005006022b80006022000b5
:1006d8000000d0008180d2000482d2008582d2003e
:1006e8000000a0000202520083825a000300310079
:1006f8000202420083824a000000a1000603e900ca
:10070800f3ff3a00000006000000e0002f0032006e
:10071800c0017800e38f51002c0036000308a300c5
:100728002a003a00217c80000100e000020032002b
:10073800810f50000400310011009800207c8800cf
:100748001600370082007800110190000200e000d6
:1007580002003200800f5100faff390011027800c0
:1007680084824000850f500018003900808f5200a5
:1007780003003a00830842000100780007003700b0
:100788000200e0000300320083014000830f5100a3
:100798000e00390012009800900098009000900018
:1007a8000100e0000900320010014000828f500073
:1007b80006003a0022f820000009eb00100178003a
:1007c80011084100910090001100980000000600f7
:1007d800889fbe0000047800117c80000100e000c2
:1007e80002003200010078000d003700217c8000f3
:1007f80040f8200004003700910f5400250036000f
:100808000180e800910090000100e000faff3a0042
:1008180010003700920f54001e0036000280e800d6
:10082800100178000200e000faff3a001101780098
:10083800217c800040f8200004003700910f54000c
:10084800140036000180e80091009000828f50006b
:10085800faff3a00997c8000888f5400010031002b
:100868008804780009007800670007000000e000ad
:1008780004003a00888f5400050032008904d10032
:10088800f5ff3700091878009fff0700d2ff3700ef
:100898000000eb004f04be0000000600881f78002f
:1008a800630440000800a1008000eb00800f5400a2
:1008b80021003600e30f540001003e0048002000ec
:1008c80008007800c2ff07008000eb000000e0008d
:1008d800190032009000780091017800648151007d
:1008e800880f5100030031001101900002087800c0
:1008f8000700370008814000020878009101900045
:100908001301980010017800110914008808780074
:10091800100178000000eb000200e0000400320043
:10092800920190000300e000010032000280e8001c
:10093800107c88008180e800010078004f0478006e
:10094800000006000900370030427800b141780005
:10095800834f5200040032001000200006003100ce
:100968000080eb00000006000201e9000200e00040
:10097800f5ff3a000000eb00000006008001780057
:1009880002003700b15978000201e9000200e000d6
:10099800fcff3a00000006008001780002003700e2
:1009a800815978000201e9000200e000fcff3a00ea
:1009b8000000060080007800010178003104e000a2
:1009c800fdff3a0000005100000006008001780099
:1009d80002003700845978000201e9000200e000b3
:1009e80006003200314278000404e000f9ff3a00c2
:1009f800020037008059eb000201e9000200e00024
:100a0800fcff3a0000000600800078000000eb00c0
:100a18000100e000050034000100780008ff07002d
:100a2800e10f400001003a000000eb000000060062
:020000040000fa
:100a38003400fa00889fbe008a9fbe000004780038
:100a48004ac6b3005bc2b3008044eb001804e00060
:100a580003003a001000200080528800020137008d
:100a68008bcf9f0099cf9f00a9cf9f00b9cf9f0040
:100a7800c9cf9f00d9cf9f00e9cf9f00f9cf9f0032
:100a880089d79f0099d79f00860020000700200083
:100a980035fd2f008f824200a4c0b30083fc2f00d5
:100aa8008f81410012c0b300894078001840780057
:100ab800f2100700a0d79f000004e00003003200f6
:100ac80020003700763d07009941070042fc2f00bf
:100ad8000f01410021fd2f008f8040001840780051
:100ae8009e1a07000004e000f6ff32002fd097009e
:100af8000004e00013003a0000a520002fd9970059
:100b08004c11dd009fd89700c808dd0001014100a5
:100b1800ffd097008180fb00010141008fd897002a
:100b28008180fb00c408dd0081004100210098009d
:100b3800900090000100a000110098000008eb0050
:100b4800c900370030c0b30080cf9f0099cf9f0005
:100b5800a9cf9f00b9cf9f0020c1b300c0cf9f008d
:100b6800d9cf9f00260120000700200035fd2f0067
:100b78008f82420064c0b30083fc2f008f81410044
:100b880012c0b3008940780018407800bb100700f5
:100b9800a0d79f000004e000030032000a003700dd
:100ba8003f3d07006241070042fc2f000f01410052
:100bb80021fd2f008f80400018407800671a070039
:100bc8000004e000f6ff32000a45e900a4ff3a00fd
:100bd8004ac6b30039c0b3005bc2b30089cf9f00d7
:100be8000040eb0090cf9f00a0cf9f00b0cf9f00a8
:100bf80021c1b300c1cf9f00d0cf9f0026012000a4
:100c08000700200035fd2f008f82420064c0b3002a
:100c180083fc2f008f81410012c0b3008040780010
:100c28001840780095100700a0d79f000004e00046
:100c3800030032000a003700193d07003c41070055
:100c480042fc2f000f01410021fd2f008f80400042
:100c580018407800411a07000004e000f6ff32004f
:100c680008007800de18070089cf9f000040eb00dd
:100c780090cf9f00a0cf9f00b0cf9f0021c1b300ad
:100c8800c1cf9f00d0cf9f00260120000700200081
:100c980035fd2f008f82420064c0b30083fc2f0013
:100ca8008f81410012c0b30080407800184078005e
:100cb80072100700a0d79f000004e0000300320074
:100cc8000a003700f63c07001941070042fc2f00d4
:100cd8000f01410021fd2f008f804000184078004f
:100ce8001e1a07000004e000f6ff32008bcf9f00b9
:100cf8000040eb0090cf9f00a0cf9f00b0cf9f0097
:100d0800c0cf9f00d0cf9f00e0cf9f00f0cf9f00c3
:100d180080d79f0090d79f00860020000700200002
:100d280035fd2f008f824200a4c0b30083fc2f0042
:100d38008f81410012c0b3008040780018407800cd
:100d48004e100700a0d79f000004e0000300320007
:100d580020003700d23c0700f540070042fc2f0076
:100d68000f01410021fd2f008f80400018407800be
:100d7800fa1907000004e000f6ff32002fd09700b0
:100d88000004e00013003a0000a520002fd99700c6
:100d98004c11dd009fd89700c808dd000101410013
:100da800ffd097008180fb00010141008fd8970098
:100db8008180fb00c408dd0081004100210098000b
:100dc800900090000100a000110098000008eb00be
:100dd8002500370089cf9f000040eb0090cf9f008f
:100de800a0cf9f00b0cf9f0021c1b300c1cf9f000b
:100df800d0cf9f00260120000700200035fd2f00de
:100e08008f82420064c0b30083fc2f008f814100b1
:100e180012c0b3008040780018407800171007000f
:100e2800a0d79f000004e000030032000a0037004a
:100e38009b3c0700be40070042fc2f000f01410009
:100e480021fd2f008f80400018407800c31907004b
:100e58000004e000f6ff32000a45e9005fff3a00af
:100e6800200020008052880000a520004f05be0009
:0c0e78004f04be000080fa0000000600dd
:020000040000fa
:100e8400ee874700889fbe008a9fbe008c9fbe00ed
:100e94008e1f780000077800e4b79f00f5b79f0025
:100ea400ae13900087bf9f006e6890000042e90077
:100eb400f8ff2f00f9ff2000e24f5200e1003e004e
:100ec400e34f500002003200f8ff2f000900200019
:100ed4000104e00005003200110020000e0078003b
:100ee400e01207006044b800d6003700e14f50001c
:100ef40009003200e34f50000f003a00421ddd00ac
:100f0400ce15de008b0575004215dd000040eb00b8
:100f1400e0e79f000c0037006318b9006311b800c4
:100f240083014000e1406100e1e79f008305d100b7
:100f34000285d3000400370002054100838549007f
:100f44000041eb00e2e79f004e0e9000de0e9000a1
:100f54000c01be000a00be00dcfd07002e0190005b
:100f6400be0190000002410081824900c4b79f0085
:100f7400d5b79f008fba970025009000b500900068
:100f84004fb39700dfb39700860f5000878f580048
:100f940019003200110020000e007800b112070081
:100fa4000004e000a70032003e1190009e10900063
:100fb4004e109000420290004fb19700dfb19700ad
:100fc400040001000004e00006003a000080eb0089
:100fd4008080eb008fbb9700a0039800b1039800ba
:100fe400980037004fb09700dfb097000fb9970013
:100ff400200198003101980061065600e0865e00e9
:101004000a0166000b8066008000eb00c002dd0070
:10101400040020006110b800000272008182720096
:101024006e689000e34f50001d003a001e109000bf
:10103400cfe9970003707a009e10900084804000ee
:101044007fb0970002f02f00efb297000501610016
:101054008001eb00481bdd004811de000201730033
:10106400c819de00924098009e10900084804000d1
:10107400a04098009e1090000482400001f02000df
:10108400010060008000eb00c80bdd004800de00ba
:1010940000807300c808de00304298006400370006
:1010a400e24f50000f003a001e109000cfe8970066
:1010b40001707a001e1090000402400000f02f001e
:1010c4006fb19700020060008000eb00c809dd00ea
:1010d4004800de0000807100c808de00104298005d
:1010e40053003700e14f500051003a001e109000a9
:1010f40004004000904078006fe397000604e0008d
:1011040006003200efc0600042002000cfeb9700e1
:101114000239dd0082c0700001003700cfe897007b
:101124000148780061024200e0824a004e089000c3
:10113400de08900061005000e08058000401600067
:10114400058060008000eb00c006dd000c0020007c
:101154006110b8000006760081867600e00f560024
:10116400e08f5e001a003a00110020000e007800a3
:101174003c1207000004e000320032004fb0970038
:10118400dfb0970061054000e08548003e11900003
:101194009e1090004e109000420290000a01be0082
:1011a400040001000004e00006003a000080eb00a7
:1011b4008080eb000fb9970020019800310198005e
:1011c400200037008fb99700aa019800bb0198004e
:1011d4001e1090000c0640001c4078006fe297003f
:1011e4000404e000070032006fb39700ffb39700d8
:1011f4004c39dd004430de0000007100c438de00ec
:101204000a00370001cfb300014060006fb29700bd
:10121400ffb29700482bdd004821de000201730075
:10122400c829de00ef40610001407000004e7800e4
:101234008fbb9700470090000010a000c0039800e7
:101244006044b8000800be004f0778004f06be0097
:101254004f05be004f04be00ef00b10000000600c1
:020000040000fa
:10126400e4874700889fbe008a9fbe008c9fbe0013
:101274008e1f7800000778000204be000105780084
:101284004e08900080bf9f009219070080007800ec
:101294000080eb000100e000a7003a00e10f5500d8
:1012a40003003200e20f55000b003a00050037003e
:1012b4002e0d9000be0d90000805450089854d0057
:1012c400060037000e0d90009e0d90000805550095
:1012d40089855d00010037000805be004e089000b6
:1012e4008000eb00df1107000004e00005003a0075
:1012f40090c0b3008fb89700807098000080eb0016
:101304008d0037004e009000de00900060079800ca
:10131400710798000e0890009e089000800f5500f9
:10132400818f5d000500360010c2b3008fb89700ae
:10133400807098000080eb007f0037002a0f98002f
:101344003b0f98008fb99700430e9000d30e900086
:101354000c01be000a00be00dcfc07000004be0055
:101364000cc8b90008e9b900000041000c46b800f7
:101374008d0640000c0655008d865d006c0f9800ac
:101384000fb89700506e90000c86fb008006eb00af
:101394000c01be000800be00ccfc07000005be0026
:1013a4000cd8b9000c56b8008d0640000c06540049
:1013b4008d865c005c0f9800e00f5500e08f5d00a7
:1013c400410032000a01be000e00780057110700e8
:1013d4000004e0003c00320061c2b300814f5000c1
:1013e40034003a001e1890000008a30016003200d2
:1013f4004e009000de00900060079800710798008e
:10140400e10f5500e08f5d000400320061015500da
:10141400e0815d000e00780044110700ec004700f5
:101424000041eb000fb89700501507000000e000e2
:101434002500320000c1b3008fb897008070980077
:101444000080eb003c0037004e009000de0090006e
:101454006007980071079800e10f5500e08f5d0068
:101464000b00320061015500e0815d000e00780040
:101474002e1107000004e0000500320000c1b30093
:101484008fb89700807098000080eb002a00370026
:101494008fb99700c3099000630f98008fb8970025
:1014a400516890000080fb000000e900500f980094
:1014b4000500370000c1b3008fb997008071980010
:1014c4000080eb001c0037006e019000fe019000cc
:1014d4000fb897006e1807005e0c900000044400db
:1014e400e08448000fb897003011900080109000fd
:1014f4008001780043109000420290000801be0071
:10150400040001000004e00005003a00d0c1b3006b
:101514008fb89700807098000080eb0006003700b9
:101524008fb99700231090000888be000040eb009c
:10153400807198000000eb004f0778004f06be0052
:101544004f05be004f04be004f00b100000006006e
:020000040000fa
:10155400e6874700889fbe008a9fbe008c9fbe001e
:101564008e1f78000047780081f79f00ca538000df
:101574000a00780030447800d080fb009045900049
:10158400c85ddd00818545000880fb00808f550023
:1015940092003600000045008040eb00f1ef9f0010
:1015a400000678009c44780042c0b300dc4f110070
:1015b40004003200094444000886fb000c06450080
:1015c4007300370063004600b046780000067800d8
:1015d400dc4078005c41780013c0b30090cf110068
:1015e40004003a00e3cf500002003a000204e00095
:1015f40004003200094444000886fb000c06450040
:1016040063003700c7f720008e4b78008ff09700f7
:101614000700e800014878000001e8000d4978005f
:101624000d80fb004200dd009dfc0700007c88006b
:101634000000e00003003a000c06e80012c0b3000a
:101644004e003700094444000880fb0000064500b2
:10165400808f55003e0036000d04e0006700320024
:101664008041eb00e3ef9f0006f8200015c0b300b3
:10167400040420008c0178008040eb00ffec97000c
:101684001340780057c0b300d3cf130004003200d6
:10169400004444008881fb00830145002200370098
:1016a4000181fb004211dd00077c8000828343003e
:1016b4008301e800334678009c439800077c80004f
:1016c400828343005386fb009c03980096034100e9
:1016d40093419000c819dd0017069000830146006d
:1016e40093039800037c8000828141008043eb00d7
:1016f40087497800037c800082814100054178009d
:1017040093019000848f510001003e00094178004c
:101714008140e800004444008881fb0083014500c7
:101724000204e00012003a000880fb00808f55009c
:101734000a00360081cf5600d1ff3e000306780030
:1017440001407800e0ef9f000041eb000b00370000
:101754000041eb00e2ef9f00080037000306780029
:1017640001417800e2ef9f000041eb0003003700e5
:101774000306780081417800e3ef9f00efeb9700c8
:101784008dcf530006003a000204e00004003a0042
:101794000880fb00808f550082ff3e000f00370059
:1017a400017c80000040eb000100e00005003200f5
:1017b40001007800d5fb070000f820000008eb00ca
:1017c4000040eb004f0778004f06be004f05be00f7
:1017d4004f04be006f00b10000000600640020004a
:1017e40005002000c2f72000813e20000e40780052
:1017f4009519070010c0b300f2ff37000040eb005a
:08180400e0ef9f00e2ff370056
:020000040000fa
:10180c00f2874700889fbe008a9fbe008c9fbe0057
:10181c008e1f78000004780003067800cc0e900030
:10182c001c1890000018a30005003a0000c2b30079
:10183c00807698000000eb00b0b79f009400370052
:10184c000191b900020778000e00e00005003a0093
:10185c000040eb00807698008000eb00b1b79f0051
:10186c008b0037000d007800181807000001eb0002
:10187c00b2b79f000000e00085003a00c8b79f0097
:10188c001a0020000b0020006c0990008001eb0076
:10189c004d089000dd089000800f5100818f590099
:1018ac0011003a008001eb00630e98005c08900078
:1018bc000000e800500e9800dd6890008180fb006d
:1018cc00810f500008003a00530e98000a01be0028
:1018dc000c007800131007000000e000020032003a
:1018ec00807698006a0037006c019000fc01900033
:1018fc000d007800641707005c0c90000004440095
:10190c00e08448002d109000b00f1400a08f1c0034
:10191c00190032008000eb000d0078004f1007001a
:10192c000004e00005003a0090c0b30080769800f7
:10193c0096002000b6b79f00550037003d1190006f
:10194c008d1090004d109000420290000801be00d6
:10195c00040001000004e00003003a0080c0b30062
:10196c00807698004a0037002d1090000888be0041
:10197c002d1090005d0098006c0890004d099000af
:10198c00dd09900000015100e08159006174b8003c
:10199c00820f5400838f5c00010036000204be00ed
:1019ac000c0a90009c0a90002c099000bc09900035
:1019bc00f2b79f0083bf9f000203520083835a003b
:1019cc0096b79f00a7b79f006141b800d2b79f00a0
:1019dc00e3b79f00820f5300838f5b00150031002b
:1019ec007fb197008fb99700020452008d109000c0
:1019fc0080804000080178004fb09700defb0700a4
:101a0c006c08900008004000600e98002c089000b4
:101a1c00bc08900000004400e0804800200e9800b4
:101a2c00310e9800bfb1970088814100b3b79f0079
:101a3c00170037008d10900080804000080178005e
:101a4c004fb09700ccfb07006c08900008004000da
:101a5c00600e98002c089000bc0890000000440018
:101a6c00e0804800200e9800310e98003fb397009c
:101a7c0008034300b6b79f00080757000400320064
:101a8c00cfb3970088834300c7b79f007eff370012
:101a9c003fb097004f0778004f06be004f05be00c1
:0c1aac004f04be002f01b1000000060036
:020000040000fa
:101ab8000000fe006022b8000300e000a100320030
:101ac800c80bde009f003a00573e2000871f7800b1
:101ad8003200f800889fbe008a9fbe008c9fbe001f
:101ae8000178a30006003a0004d8a30002003200df
:101af8006147af000160a20004c0a7000160a00018
:101b08003b0024002d00200004f0a0000c00200061
:101b18000c00e0000600320004f0a1000b002400d5
:101b2800e8cf4000020032004d0020001b002400d6
:101b38000600fa000d06d0008c8747008e03780057
:101b48008b1b7800809bbe000f0478008004eb009c
:101b5800dcea2d000c28e10011003200c22add0069
:101b6800030032008502e90005800900b61f7800ed
:101b7800060020009601880085202000c60020006d
:101b880061e7af00feff370002003700951fba007b
:101b9800b59fba000683e900fcff3100888457002e
:101ba8009e0af8009e2aef00550037008f0578003e
:101bb8000d06e9000c800900809feb000300e90096
:101bc80000800900b25d7800038155008001eb00b8
:101bd8008d00d0000f00a7008000eb000d00d100a1
:101be80002000900b25b780080dbeb000000e9002e
:101bf800fbff3a00818757000d06e9000c800900b9
:101c0800c70f48003a003100c7057800470578003b
:101c18008d00450060864d006403540089037800f8
:101c280064034300e8835300070039003608e100e5
:101c380036e0e100faff34003650e10036d8e10022
:101c4800f8ff31002a00370000002000a10f200013
:101c58006203470004f0a7003600be009101880027
:101c68008d00d1008e0378000676200061e7af0072
:101c7800feff370002000900371b78003708bb0059
:101c88003798bb008100e900fcff3a006a32210066
:101c9800feb097007fb897000100b8008a03500093
:101ca8000a0020001a00a0000000eb001a00a7009c
:101cb800feff370004a0a7000060fe0012450200e6
:101cc80000000000070b7800b109b000010b780094
:101cd80061e7a800000000000000000004b8a300ad
:101ce80061e7af00feff3a0028450200000000004f
:101cf800e20347000000eb00979b4600971b480053
:101d08000d00d1000080460080815100b2ff3100f3
:101d180080814100a5ff3a0000ff23006027b6003c
:101d28008027eb001e009000ae0090000080fa00b3
:101d38004f06be004f05be004f04be003200f9003a
:0c1d48008027eb009e2aef000000060040
:020000040000fa
:101d54003400fa00889fbe008a1f7800984ae20087
:101d6400020032000000e0001c003200682aef008c
:101d74006a2aef008e2fef009e2aef00922aef00ce
:101d8400966aef00b11907000053880011538800c8
:101d940082538000935380000002410081824900f5
:101da400245388003553880010c0b30098eab70064
:101db400003a8000a054880001212c0081006000ba
:101dc40006003200a2c0b30085a92000824a780030
:101dd400f1de230081016000033a880068032800d3
:101de4001ac0b300991907000253800013538000ee
:101df40002015000838158000e00330020002000af
:101e04000f1b070080538000915380004c0add00b3
:101e14004400de0000007200c408de0002538000ab
:101e2400135380000201400083814800025388005c
:101e3400135388001f1807000000e0001d00320043
:101e4400821907002253800033538000020050009f
:101e540083805800170033007e18070040092000d3
:101e6400420a2000000151008000eb00e31a070041
:101e740068aaef006aaaef009a2aef009c6aef00b2
:101e8400100020000080ea00682ab600000020004c
:101e94000080ea006a2ab600831a07000000eb00fb
:101ea400b71a0700940af8004007f9006a1a0700f5
:101eb4000000fe0001a9200008007800d41a0700e1
:101ec40080c0ea0063a9200093c0600002003200d1
:101ed40084a920000a4a780096eab7000004e000ca
:101ee4003c00320098cabf00e14f500039003a006c
:101ef40002a920008800780010c4b300940d0700e4
:101f04000000e00033003a001200200081022800a3
:101f140060fc2f000f00400009020700e10f4000a1
:101f240006003a0010c4b3005e1407004719070006
:101f34002053880031538800aaff3700dd170700bb
:101f44000000e000070032008000eb0060fc2f007e
:101f54000f0040001442070080047800e18f540011
:101f640005003a001100200060fc2f000f00400023
:101f74000d4207008004780009007800801a0700e9
:101f840032190700205388003153880060fc2f0069
:101f94000f004000261a070010c4b30041140700c4
:101fa4000900e0008fff3d00986aec008253800036
:101fb400935380004218dd00ce10de0081007000d3
:101fc4004210dd000d1907000000eb006c1a070039
:101fd40084ff37004f0578004f04be000080fa00ec
:041fe40000000600f3
:020000040000fa
:101fe800de0e00003200000000000000740a00004d
:101ff8000200000000000000760a00000200000055
:1020080000000000a40a0000000200000000000018
:10201800a40c00000002000000000000600f000097
:102028000c00000000000000760f00000600000011
:1020380000000000780a0000020000000000000014
:102048007a0a000002000000000000007c0a00007c
:1020580002000000000000007e0a000002000000ec
:1020680000000000800a00000200000000000000dc
:10207800820a00000200000000000000580a000068
:102088000400000000000000001000000002000032
:1020980000000000280f00001400000000000000ed
:1020a800840a00000200000000000000860a000008
:1020b8000200000000000000880a00000200000082
:1020c800000000008a0a0000020000000000000072
:1020d8008c0a000002000000000000008e0a0000c8
:1020e8000200000000000000a40e00003a000000fa
:1020f800000000005c0a000004000000020000006c
:102108007856340012000000500a00000800000051
:1021180000000000900a000002000000000000001b
:10212800920a00000200000000000000940a00006b
:102138000200000000000000600a00000400000027
:1021480000000000640a0000040000000000000015
:10215800960a00000200000000000000980a000033
:1021680002000000000000006c0f00000a000000e0
:102178000200000032459400350000000000000015
:10218800000000003c0f00001400000002000000e6
:102198002c1fb800390000000000000000aa0a0047
:1021a800c63f00000000000000000000100f000003
:1021b800180000000200000008065000000000009f
:1021c80002000800055000000000020000010300a2
:1021d80000000000000200007c0f00000600000064
:1021e80000000000680a0000040000000000000071
:1021f800860f00000200000000000000880f0000a9
:1022080002000000000000008a0f00000200000029
:10221800000000008c0f0000020000000000000019
:102228008e0f000002000000000000009e0a00005f
:102238000200000000000000920f000002000000f1
:102248000200000004000000820f000004000000eb
:1022580000000000940f00000200000000000000d1
:042268000000000072
:020000040000fa
:10226c00e4874700889fbe008a9fbe008c9fbe00fb
:10227c008e1f780000077800830578004b0d9000c6
:10228c001b1890000008a30004003a00f0c1b30032
:10229c00007598008006eb00880037000196b900a5
:1022ac000c00e00004003a000040eb0000759800c0
:1022bc008006eb00810037000a00780083150700c8
:1022cc008006eb000000e0007c003a00ba109000a1
:1022dc004a109000e1009000010001000004e000b1
:1022ec0003003200a0c1b3000075980073003700e2
:1022fc008006eb006c80450080bf9f006b0990004e
:10230c008001eb004a089000da089000800f510021
:10231c00818f59001e003a000000eb00e00d980080
:10232c005b0890000000e800d00d9800da6890007f
:10233c008180fb00810f500015003a006b04900067
:10234c00fb0490000000eb00d00d98001200200060
:10235c00030020000b007800720d070061022000c2
:10236c00810f500006003a00e8059800f905980026
:10237c000041eb008fb897000a0078007911070034
:10238c000000e00002003200007598004b0037009e
:10239c006b019000fb0190000a007800ba14070052
:1023ac005b0c900000044400e08448002a1090006c
:1023bc00b00f1400a08f1c00180032008000eb003e
:1023cc000a007800a50d07000004e00004003a00a4
:1023dc0090c0b300007598009d00200037003700b6
:1023ec003a1190008a1090004a109000420290001e
:1023fc000801be00040001000004e00003003a00e4
:10240c0080c0b300007598002c0037002a10900093
:10241c000888be002a1090005a0098006b089000a3
:10242c004a0a9000da0a900000025200e0825a0038
:10243c006161b800840f5100858f5900010036008e
:10244c000401be00020478008a1090000080400055
:10245c008e00780048f907002a109000c000900008
:10246c000100a000410098006b089000080040009b
:10247c00e00d9800888646000806560002003200df
:10248c00080747009dff37006168b8000b099000f2
:10249c009b0990000201400083814800820d980046
:1024ac00930d98002b099000bb099000020040008e
:1024bc0083804800a00d9800b10d98000d007800a5
:1024cc004f0778004f06be004f05be004f04be00fc
:0824dc004f00b10000000600f2
:020000040000fa
:1024e4004200fa00889fbe00810478008000eb005f
:1024f400d1bf9f000041eb0080007800708057003e
:1025040014080700000478000800e00005003a0001
:1025140011c2b300d07b8000017098000080eb00f2
:10252400840037000fb897009fb89700b0bf9f0092
:10253400c1bf9f002fb89700b010900040109000ca
:10254400e1009000010001000004e00005003200f9
:10255400a1c1b3002fb89700017098000080eb0070
:10256400740037008040eb0009007800490407003c
:102574000004e00002003200e34f500005003a007e
:1025840031c1b3002fb89700017098000080eb00b0
:1025940068003700e14f500015003a000fb997006a
:1025a4009fb99700b2bf9f00c3bf9f000000eb001c
:1025b400d0bf9f00a1fb2f008f804000090078004e
:1025c400260f0700270020000003eb008002eb0029
:1025d40066825700ea8157007f815700a1fb2f00d4
:1025e4008f8040007080570080010700f0b79f0083
:1025f4007fb097000000e00005003a0021c1b3005d
:102604002fb89700017098000080eb004900370054
:102614008040eb00080078001e0407008000eb00f7
:10262400d1bf9f000fb997009fb99700b2bf9f0019
:10263400c3bf9f000004e00002003200e34f5000db
:1026440005003a0031c1b3002fb89700017098001b
:102654000080eb0037003700e14f50000f003a00d4
:10266400a1fb2f008f80400008007800fb0e0700bc
:10267400270020000003eb008002eb006682570075
:10268400ea8157007f815700a1fb2f008f80400013
:102694007080570055010700f0b79f007fb0970086
:1026a4000000e00005003200c1c0b3002fb897005d
:1026b400017098000080eb001e0037004faa9700bd
:1026c400e68157006a815700f280570070805700f6
:1026d400d501070000047800a1fb2f008f80400083
:1026e40009007800dd0e0700ff8157000a00090089
:1026f400335c7800b800b1002fb89700a0109000a8
:10270400410190000200a000c20098008000eb008c
:10271400d40c0700804078000000eb000104e000c6
:1027240004003a0091c0b3002fb8970001709800dc
:102734000080eb004f04be000080fa000000060099
:020000040000fa
:102744000e00fa00889fbe008a1f780000047800fb
:10275400820478000000eb00c0bf9f000041eb0042
:10276400728057007b070700000578000080eb00ab
:102774000a00e000850032007fb097008fb8970010
:10278400a0bf9f00b1bf9f001fb89700b01090007a
:1027940040109000e1009000010001000004e000fe
:1027a400070032006e80640005003200a1c1b3004e
:1027b4001fb89700017098000080eb007300370089
:1027c4000800e00005003a0021c2b3001fb89700da
:1027d400017098000080eb006c0037008040eb0033
:1027e4000a007800ab030700e14f500016003a00de
:1027f4007fb097008fb89700a0bf9f00b1bf9f0024
:102804000000eb00c0bf9f00880078000a00780039
:10281400920e0700720220000801410027002000e8
:102824000003eb008002eb0068825700ec81570044
:102834008800780072805700ec0007000000e00078
:10284400060032001700370031c1b3001fb89700eb
:10285400017098000080eb004c0037000938a30099
:1028640005003a0088007800728057003c14070085
:102874000004e00009003a00f8089000e1b79f0066
:1028840012c0b300f480570008007800f604070073
:102894000000e0000f003200390037000920a100d9
:1028a4000d003700ef0f500035003a000928a3004f
:1028b400330032001fb89700400c98007fb0970097
:1028c4008fb89700008cbe00200498003104980053
:1028d400010037000920a0000928a3000a003200e3
:1028e4008000eb00e1b79f0013c0b3000041eb0090
:1028f400f4805700080078009e1407000000e000f0
:102904001f003a000940a0000908a3000400320097
:10291400181890000010a000101c98000300370045
:10292400181890000010a100101c98000918a300aa
:1029340004003200181890000000a000101c980039
:1029440003003700181890000000a100101c980024
:102954000000eb000948a3000c0032002100200015
:102964006011b800080078003dfa07008000780084
:102974000000eb000100e00004003200c001200070
:102984009fb89700807098000080eb004f05780096
:0c2994004f04be000080fa0000000600a6
:020000040000fa
:1029a000889fbe008a1f78008c9fbe0000047800bc
:1029b0000140780089170700000578000a00e00050
:1029c00003003a0020002000100498008400370023
:1029d0000a007800c01307000000e0000300320086
:1029e00010002000100498007d003700184090006f
:1029f0000004e0003b0032006000b8007004980062
:102a0000010c98000040eb0010449800f00f2000eb
:102a100010049800ea689000414498004a08900029
:102a200030049800da689000014c98002a08900061
:102a3000ba08900050049800610498006a689000f9
:102a4000e24f50000e003200e34f5000030032000e
:102a5000e14f50001b003a001200370070ff2f00ba
:102a6000f1ff2000500c9800610c9800f0ff2f003f
:102a7000f1ff2000700c980001149800110037003d
:102a800070ff2f0001002000500c9800610c98008e
:102a9000f0ff2f0001002000700c98000114980036
:102aa0000800370070ff200001002000500c980043
:102ab000610c9800f0ff2f0001002000700c9800be
:102ac000011498002200200003002000120c98003e
:102ad000230c9800320c9800430c98000a007800f0
:102ae000ff41070098009000f00f2000808f5000f9
:102af0003b003a008044eb002c0020000d00200039
:102b000018099000a80990000a007800f441070015
:102b10007809900088119000820f5000838f580030
:102b200003003a0030002000100498002c00370009
:102b3000e00f5000e08f580006003a007801900046
:102b40008809900061014100e08149007204980009
:102b5000030c980018099000a80990006101410039
:102b6000e0814900120c9800230c9800580a90004c
:102b7000e80a9000800f5200818f5a00070032004f
:102b800058009000e800900062004000e08048009b
:102b9000800f5100818f5900020039001c0c9800f1
:102ba0002d0c980018099000a80990003808900092
:102bb000c8089000800f5100818f590003003a002f
:102bc0000000eb0010049800050037008944e8007d
:102bd000e1cf4400caff3a00f00f20001004980033
:102be0004f06be004f0578004f04be0000000600ef
:020000040000fa
:102bf000ee874700889fbe008a9fbe008c9fbe0064
:102c00008e1f780000067800c1b79f00f2b79f00c2
:102c1000830578008406780085047800d6b79f0085
:102c200087bf9f000000eb00b0b79f001b00be00f5
:102c3000e00f5000e08f58000d003a002c0090008b
:102c400060019000f0019000828dbe000800370006
:102c50008a047800080037008a04780006003700ec
:102c60008a047800040037008a04780002003700e4
:102c70008fb9970068876100090278008d0178009c
:102c80000b017800fa8057000c00780067000700fd
:102c9000000478003fb09700ef0f5000570032005b
:102ca000fd0f500004003a00ac009000d2c1b30008
:102cb00082709800540037000905e80038489000f9
:102cc000ef4f500006003200e84f50000400320081
:102cd00051ceb30098cf100051003a00dcff37000e
:102ce0001804e000dcff3a00f00020004600370046
:102cf0000e00e000050032000080fb005fb197008d
:102d000080006100810f5000d5ff3a00e8b79f00b6
:102d10000ff19700880078007fb09700d40d07006e
:102d20000004e000d0ff32004fb09700efb09700f2
:102d300072022000020140000a00090031597800a7
:102d4000b100b100ac019000430898000800780081
:102d5000a24407004fb1970040019800510198002c
:102d600060019800710198000000eb005009980084
:102d7000600998006000b8002009980031099800a7
:102d800068089000f8089000000998001109980060
:102d9000384890000080fb00001198000048a30014
:102da00007003200d84990006361980078009000d5
:102db00010119800080c90002811980005003700a9
:102dc00038099000cfb0970092109800480c9000fe
:102dd000a8109800cfb19700f9099800bc197800a5
:102de000ac1178001c00be0003017800200198009f
:102df000310198000000eb0003003700f0002000d4
:102e000001003700f00020004f0778004f06be0099
:102e10004f05be004f04be00ef00b10000000600e9
:0c2e20001804e000b2ff3a00f6ff370093
:020000040000fa
:102e2c00e4874700889fbe008a9fbe008c9fbe002f
:102e3c008e1f78008002780081bf9f000204be00c4
:102e4c0084067800250590004a099000da09900064
:102e5c004b18dd004511de0002017000c519de00c3
:102e6c000287fb00110009008e86d80080057800cf
:102e7c00ea689000e3cf5000120032001801be0047
:102e8c00e00f5100e08f59000e003a00da1090006c
:102e9c00818f560005003900f00020008fb8970094
:102eac00800878000000eb00640037001501be00bc
:102ebc000a007800f411070000844500e084480003
:102ecc00380037005a6e90000c86fb001100090088
:102edc008c85d80000067800990f5600030031004d
:102eec00800ceb00351c7800251478001900780054
:102efc005a6990000281fb000281b900828555005d
:102f0c00800f5600220036001801be000a0078001f
:102f1c00f0400700008cbe006a699000e34f51003e
:102f2c000a003a0082ff2f00f3ff2000820f5000ae
:102f3c00838f58000f003a00f00020008fb99700e3
:102f4c00800978000000eb003c00370082ff2f0066
:102f5c0003002000820f5000838f580005003a00b8
:102f6c00f00020008fb99700800978000000eb007a
:102f7c00320037001900e800800c7800da68900005
:102f8c008180fb0081855500800f5600deff3e00de
:102f9c001801be000a007800bb1107000084450030
:102fac00e08448002a109000b00f1400a08f1c0081
:102fbc001b0032008000eb000a007800a70a070013
:102fcc000004e00005003a00900020008fb8970044
:102fdc00800878000000eb00180037003a119000d0
:102fec008a1090004a109000420290000801be0026
:102ffc00040001000004e00005003a0080002000fd
:10300c000fb99700000978000000eb000b003700a7
:10301c002a1090000888be002a1090005a009800d0
:10302c00110009008e86d800c50edd000a10900034
:10303c000d0040008fb997008009eb004f07780016
:10304c004f06be004f05be004f04be004f00b1003e
:04305c00000006006a
:020000040000fa
:10306000889fbe00e94f50000f003a00d2798000df
:10307000410021000248a30001003a00e480500012
:10308000a2f3200092017800c419de008381ea00d7
:10309000e1816100c419dd00120278000440a10042
:1030a0000309720023003700d2798000c10021009b
:1030b0000258a30001003a00e4805000a2f320006f
:1030c00092017800c519de008381ea00e181610088
:1030d000c519dd00120278000450a1000309720036
:1030e000ed4f500013003a0012548000720390001c
:1030f000020c9000920c9000420290008003eb00c2
:103100000803530089835b008002eb00840f5300a7
:10311000858f5b00020036004200900026003700d9
:1031200072009000020a9000920a90000400500081
:103130002100370012548000520a90000430b2007f
:1031400003102000830f520008003a00e94f50009e
:1031500002003a004200900041003700020a90004d
:10316000920a9000040078003d003700520490005d
:10317000e2049000020b9000920b9000420290003b
:103180000603540087835c008002eb00840f530029
:10319000858f5b000200360042009000300037004f
:1031a00052039000e2039000020a9000920a9000fd
:1031b000040053002a003700220990009200980072
:1031c0000e003700320a9000320990001241900040
:1031d0000281fb000201e8006611b9006402790077
:1031e0009400980005003700320a90009209900080
:1031f0000209900002014200920098000041eb0099
:1032000092409800f03fb20002c02f00110161000f
:103210000200700080087800125480009201900033
:10322000cb19de00e1816100ce19dd0000e0a100d4
:103230000080710080087800120190004a11de00c1
:10324000610161004b11dd0000b0a10000007100c0
:1032500000f0a000800878004f04be0000000600c7
:10326000520a90000430b20003102000830f520075
:08327000ddff3a00d3ff370037
:020000040000fa
:10327800ea874700889fbe008a9fbe008c9fbe00d9
:103288008e1f7800d9538000a0f320001060a100a1
:103298001070a10018f120008805e8000005eb0077
:1032a8008806e900000678000e0420004350dd007f
:1032b800660040006d0078000018a3000c00320082
:1032c800f8f897004940900080cf50004c003a0031
:1032d80059409000984f100049003a00694090000a
:1032e8009b4f100046003a001c60a00044003700c5
:1032f80008007800094990000281fb009948900075
:10330800c808dd00810071000801e900928f1000f3
:103318001a003a00294990000281fb00b948900040
:10332800c808dd00810071009b8f100013003a006f
:10333800c350dd00e6804000ed8078000178a300ee
:103348000d0032001c70a0004841900001f32000dd
:1033580082487800c350dd00e6804000ed807800a8
:103368000128a3000500320038419000a1f2200096
:1033780082487800010037001c60a0008000e90046
:103388000081eb00910f11001d003a009b0f110006
:103398001b003a00094990000281fb0099499000fe
:1033a800c819dd0082817100d3b79f0029499000b8
:1033b8000281fb00b9499000c819dd0003017100c2
:1033c800e2b79f0070f99700e2ef9f001040780085
:1033d800f0ef9f009b40780081f79f008400200059
:1033e80005002000768157009107200000c0eb00ff
:1033f800941207000004e00001003a001c60a000dd
:103408001c00670012003200c350dd0000f12000ec
:1034180081014000f2f22000d34190000349780076
:10342800e6804000e080780010c0b3000128a300c7
:103438000d003200c350dd00e480400002f120009e
:10344800a0f2200062c8780010c0b3000600370060
:103458000a05e80068044400e8854500e20f5500c5
:1034680092ff3a000040eb004f0778004f06be007d
:103478004f05be004f04be00af00b10000000600bb
:020000040000fa
:103488008f87e800889fbe008a9fbe008c9fbe0081
:103498008e1f780081467800024678008304780001
:1034a8000404780005057800860578000747780049
:1034b80061c0b300d2f22000924f100066003a00bb
:1034c80002f02000005480000001610011c0b30028
:1034d80000402000800f51005f003a00c079800052
:1034e8001000900001c1b3000098a3005a003200f8
:1034f800eb4f56002e003a00b079800031c0b3007f
:103508000000e00054003200e04090008180fb00a1
:10351800888f500057003200100078000000e0004b
:1035280048003200e04090008180fb00888f500006
:10353800f9ff3a004f003700220190000200e00036
:103548000b0032009201900031c0b3000398a30031
:1035580004003a0040003700920090000198a30050
:103568003a003200120178000200e000faff3a0047
:103578001001900031c0b3000200e00036003200b4
:10358800a24090008180fb00898f50003e003200ed
:10359800120178000200e0002e003200a2409000e4
:1035a8008180fb00898f5000f9ff3a003600370010
:1035b800e14f560006003a000900e00004003a0016
:1035c800e2cf560002003e0008407800a61107002e
:1035d800215480008d4878009c409800a9409800ac
:1035e800c84cde00b9409800c84098004844de0046
:1035f800d8409800ea4098004850de00f040980013
:10360800c07980002fe99700125898000e04e00056
:1036180006003a000a0278008b0178008200200038
:10362800a50f07008040eb000b0037000a02780066
:103638008b017800820020005d1007008040eb00bd
:103648000500370031c0b3000300370031c0b300b4
:103658000100370031c0b300014078004f077800ff
:103668004f06be004f05be004f04be002f00b1003c
:10367800000006002001900031c0b3000200e00005
:10368800adff3a00f4ff370022009800d0ff370062
:020000040000fa
:10369800889fbe008a9fbe008c9fbe008e1f780048
:1036a8008043eb008744780015002000e2c2b30095
:1036b800904f110058003a001041900035c0b300f7
:1036c8000204e00065003200f3c2b300834f5100ea
:1036d8006200320087437800874478001500200094
:1036e8008341e900834f51004b003a00204190008c
:1036f80035c0b3000204e000580032008341e800fe
:10370800834f510055003200874378008744780082
:103718001500200040003700e18f520030003a00c9
:103728008743e8000bc74100f94f570024003600d3
:103738000dc74100e94f5700210036000204e000a0
:103748001f003500e2c2b30082cf510004003200ee
:103758006d41510082cf510005003a001800370032
:103768000904e0004300320025002000160037005d
:103778003e00280012c0b300decf11000400320062
:103788000241e800f14f5100fbff3a000200370008
:10379800f14f51000a003a000104e0000500320030
:1037a80088cf5100060032008acf510003003a004a
:1037b8000300370025002000010037002500200005
:1037c8000904e0000400320019c0b300e3cf53003d
:1037d8002a003e0002003700e8cf530027003e00d1
:1037e800e28f520013003a000c017800d2cf11008a
:1037f80006003a000104e0001500320088cf5100ad
:10380800020032008acf510013003a00840f5100a1
:10381800f6ff3a0007003700f6c2b3003c01280063
:1038280069024600f8c3b300aac2b300fbcbb300d9
:103838000dcdb30030417800824178000204e000e9
:1038480006003200864f5100b3ff3a0003003700ec
:103858008042eb00010037008042eb000540780011
:103868004f0778004f06be004f05be004f04be004c
:10387800000006008043eb00d3ff3700250020003e
:04388800d9ff37002d
:020000040000fa
:10388c001000fa00881f78000004780038119000ae
:10389c008810900048109000420290006011b8000f
:1038ac000400010080407800800020000104e0004a
:1038bc006c003200281090000008eb0030107800eb
:1038cc0088109000e1f993004000200052c5b3002d
:1038dc0082cf510063003a00f1f99300a2cab30001
:1038ec0082cf51005f003a006171900060c4b30058
:1038fc00804f510016003a007171900065405000e5
:10390c00804f510012003a00017990007340400042
:10391c00804f51000e003a001179900010c3b30093
:10392c00804f51000a003a006161900068405000dd
:10393c00804f510006003a00000ceb003814780060
:10394c0020c0b300606c98000000eb00450037000d
:10395c0021d1900060c4b300804f510016003a0092
:10396c0031d1900065405000804f510012003a0058
:10397c0041d1900073404000804f51000e003a003e
:10398c0051d1900030c3b300804f51000a003a006f
:10399c0021c190006a405000804f510006003a004f
:1039ac00000ceb003814780030c0b300606c980049
:1039bc000000eb002b0037000040eb00606c98001f
:1039cc00e01b200001004000e11eb00014002000ac
:1039dc000305240005802100728157000f000900a7
:1039ec00305978000001b1003fbb9700cfbb970066
:1039fc00068cbe002ff19700ee4f510014003e00d4
:103a0c000201fb000221dd000303610008003a0003
:103a1c00050361000a003a000218a3000c003200f2
:103a2c0010c0b300606c98000000eb000d00370074
:103a3c0020c0b300606c98000000eb000900370058
:103a4c0030c0b300606c98000000eb00050037003c
:103a5c00810f50000200320070004000deff370082
:103a6c00500020004f0478000080fa00000006008f
:020000040000fa
:103a7c004400fa00889fbe008a1f78008c9fbe000d
:103a8c0000057800810478000000eb00f0b79f007f
:103a9c00a0bf9f001a00be00a09f9f00b19f9f0077
:103aac00e00f5000e08f580005003a002a0090000b
:103abc0060019000f0019000a29f9f00b39f9f00b7
:103acc002a049000e8a79f008040eb0009007800d2
:103adc00eefe07000004e00002003200e34f50004d
:103aec0004003a0030c1b300007498000080eb0071
:103afc0056003700e14f50000f003a0041fb2f00f9
:103b0c008f80400009007800d209070013c0b30071
:103b1c0002c1b300f280570040fb2f000f004000a1
:103b2c0012100700800078000080eb000100e0001c
:103b3c00050032004500370030c1b3000074980016
:103b4c000080eb00410037002f989700bf9897003a
:103b5c006fa19700f2019000620190006066b800be
:103b6c00820f5000838f5800010032000006be0007
:103b7c00c09f9f00d19f9f00008dbe0080bf9f0003
:103b8c0091bf9f007fb29700ec8157007081570066
:103b9c0021fb2f008f8040000a007800a0fc07005a
:103bac000000e00005003a002a009000af71970079
:103bbc00037098000080eb0024003700d048900080
:103bcc00c1ef9f0070019000d2b79f008009900058
:103bdc00c3b79f00fe4007000004be006f9897001b
:103bec00ff989700008dbe0080bf9f0091bf9f0083
:103bfc000000eb00a0bf9f00f0b79f000002eb009d
:103c0c00ec8157007081570021fb2f008f80400002
:103c1c000a00780082fc07002f989700bf98970045
:103c2c00008dbe002a009000f88057000c02be00e8
:103c3c000801be00b3080700800078000080eb008c
:103c4c000100e000010032000000eb004f06be0056
:103c5c004f0578004f04be000080fa0000000600fb
:020000040000fa
:103c6c000e00fa00889fbe008a9fbe008c9fbe008b
:103c7c000005780082467800ca0c90001104780088
:103c8c0010002000b0b79f00e9b79f001a00be00db
:103c9c00c0b79f00d1b79f00f0b79f0081bf9f00b6
:103cac00e00f5000e08f580004003a0069009000cb
:103cbc00f9009000f0b79f0081bf9f000000eb005f
:103ccc0090bf9f0008027800ee8157007281570068
:103cdc00fa8057007880570051fc07000000e00084
:103cec000a00320090407800fbcf40000f003200f9
:103cfc005bceb3000c0420000104e0000f003a007e
:103d0c000a0037000000e00003003a003fb09700c3
:103d1c00807498004800370090407800fbcf40003a
:103d2c00020032000104e00004003a00c0c0b300fd
:103d3c0080749800c00020003f0037000b487800ca
:103d4c0029119000c20190000300a00043019800cb
:103d5c0030489000ef4f500002003a00810066009e
:103d6c000c003a000800e0000a0032000804e900e8
:103d7c0008027800ee81570072815700fa805700d4
:103d8c007880570026fc0700b0489000efcf500019
:103d9c00dcff3200bfb097000100e00010003a00d9
:103dac004a009000da00900069019000f90190003f
:103dbc00820f5000838f5800090032000d04e00080
:103dcc0007003200090178001303070000f0a70078
:103ddc000000ea000000e9004f00de00b0b79f00d1
:103dec004a0890008000eb001c0707000004e0006c
:103dfc0005003a004a08900091c0b3000170980089
:103e0c000080eb000c0037004a08900011002000e5
:103e1c00120707000004e00005003a004a08900071
:103e2c0091c0b300017098000080eb0002003700d5
:103e3c003fb09700807498004f06be004f05be003f
:0c3e4c004f04be000080fa0000000600d9
:020000040000fa
:103e5800889fbe008a1f7800004478000040eb006d
:103e680032ec20001204e00065003a00c3538000e1
:103e780003027800234090000080fb00334190004b
:103e88004811dd00020170000040eb005c003200c8
:103e98000001eb0006c5b300aaec200080437800bf
:103ea8000280410010409000e44f500049003a0061
:103eb8000280410050409000e84f500045003a0011
:103ec800028041006040900065405000e14f500082
:103ed80040003e000280410070409000864f500034
:103ee8003c003a000280410020409000004d7800dc
:103ef800634079000080fb0000014100028041001e
:103f080010409000e54f500032003a008744780096
:103f18000740780082824100b5429000e2cf52000b
:103f28000a003a0082824100a54290000504e000a0
:103f380003003d000004e0003400320003003700b5
:103f48000904e00001003a0085447800e342790062
:103f58008582fb0005014100828241009542900064
:103f6800e5cf5200ebff32000004e00019003200f8
:103f78000904e0001700320032ec200008497800fc
:103f88000201e80001497800e70041008048780014
:103f98008100e8008948780003e22400120020002c
:103fa8008040780008407800a210070003e224004f
:103fb8001200200089407800084078009d10070012
:103fc80001c1b30060ec20000148780010c0b300c4
:103fd8000b003700634079000080fb0000014100be
:103fe800a44290008582fb00344090004800dd0028
:103ff80000807200820f5000a9ff3e000040eb00d5
:104008004f0578004f04be00000006000540780008
:04401800ceff3700a0
:020000040000fa
:10401c001400fa00889fbe008a9fbe008c9fbe00d1
:10402c000004780001057800824578000406be0083
:10403c000000eb0080b79f00e0b79f001800be00a7
:10404c0090b79f00a1b79f0048099000b2b79f009e
:10405c00c0b79f00d1b79f001a027800f4815700b7
:10406c007881570001fe2f008f8040007e80570022
:10407c006bfb0700800478000900e00005003a00a3
:10408c0048089000d1c1b30001709800d001200005
:10409c004a0037007102200088804000b2002000e6
:1040ac000900780048f20700bb4c98000040eb0078
:1040bc00c04c9800dc0c9800f0ff20000d00600054
:1040cc008000eb00c000dd0000002000a10c980077
:1040dc006000b800e00c9800f10c9800b15380001f
:1040ec000100e00002003200728057000100010064
:1040fc00aff09700d14c98008fb89700f10498005e
:10410c007fb09700800c9800b10c9800c00c980000
:10411c004c0498005d0498006c0498007d04980091
:10412c000000eb00500c9800600c98006000b80088
:10413c00200c9800310c980069089000f908900048
:10414c00000c9800110c9800394890000080fb007e
:10415c00001498000048a30007003200d9489000d2
:10416c00616498007901900012149800890c9000f9
:10417c002914980004003700390890001014980096
:10418c00c90c9000291498001a0578007a0c980034
:10419c001fb09700afb09700008cbe0020049800b1
:1041ac00310498004808900020109000c000900046
:1041bc000100a000410098000fb097004f06be0010
:1041cc004f05be004f04be000080fa000000060040
:020000040000fa
:1041dc00ee874700889fbe008a9fbe008c9fbe0062
:1041ec008e1f7800000678000d402000fe548000e1
:1041fc009e2aef000020200001002000b0b79f0095
:10420c00c1b79f007a805700e8420200000000000e
:10421c00d0b79f00e1b79f00f2b79f0083bf9f000c
:10422c00890020000004eb002e003700cfea970035
:10423c00e9cf42000500360010002000502b020090
:10424c00000000000000eb004b0037007fb597002a
:10425c008fbd97000d00e9007fb3970086006000ca
:10426c00050032008000eb000a0070008b807000ab
:10427c0061054000e08548006168b8005fb19700b7
:10428c00efb197000000410081804900d0b79f003a
:10429c00e1b79f008a0f50008b8f58001000390037
:1042ac008020200001002000bfb29700808f5200b8
:1042bc00300031007a805700e84202000000000014
:1042cc00d0b79f00e1b79f00f2b79f0083bf9f005c
:1042dc00800f5500818f5d00010036000804e90055
:1042ec000804e8001c007800800f5400cfff390050
:1042fc00000ee8005fb09700efb097009e420200fe
:10430c00000000000000e00016003a005fb29700c9
:10431c00efb2970082002000030020004021200013
:10432c00010020007c3d0200000000000000e000c5
:10433c000c003a00e07b200000074700fe54880088
:10434c005fb09700efb09700d8410200000000006a
:10435c000000eb00502b02000000000010002000b9
:10436c00050037008904e900deff3a001000200048
:10437c00010037000000eb004f0778004f06be002d
:10438c004f05be004f04be00ef00b1000000060058
:020000040000fa
:10439c003a00fa00889fbe008a9fbe000005be004e
:1043ac00020478000304e0001c0032000041eb0022
:1043bc008a007800e0fb2f000f004000630007002c
:1043cc00800478000900e00005003a0011c2b30037
:1043dc00d07b8000017098000080eb005700370004
:1043ec000a8554002a1498000000eb000014980071
:1043fc007f9997008fa19700620c9800730c98001e
:10440c00420c9800530c98009fa09700917090005c
:10441c0061649800101498001100370068609000d7
:10442c00eb10070090a79f0048099000d809900056
:10443c00f29f9f0083a79f00240d07000000e0005f
:10444c000500320091c0b3001fa0970001709800c6
:10445c000080eb0039003700a81490008904450057
:10446c0011c0b3000900780088fc07000004e000cc
:10447c0002003200e34f500005003a0031c1b30096
:10448c001fa09700017098000080eb002b003700f4
:10449c00e14f500016003a0041fc2f008f80400085
:1044ac00090078006b070700c70020000b03780099
:1044bc00981290000402200008024200fc01440003
:1044cc007581570041fc2f008f804000e0fb2f00ce
:1044dc000f004000c3f907000000e00004003200a8
:1044ec009fa09700807098000080eb0013003700ad
:1044fc00f58057000800780052090700cfe19700bb
:10450c00534c98002fa89700bfa8970070049800f0
:10451c00010c9800cfb09700110c98003fb1970098
:10452c00220c9800afe99700635498001fb09700d5
:10453c000000e800101498000000eb004f05be00ce
:0c454c004f04be000080fa0000000600d2
:020000040000fa
:10455800889fbe008a9fbe008c1f78008005780067
:1045680081047800024678000900780011f10700fc
:10457800000478000800e0004e003200b07b8000a4
:10458800c17b8000808dbe00d17b8000a105980092
:10459800e10f540006003a002b009000cc0c0700f5
:1045a8000000e000500032008004eb004e003700ad
:1045b80099409000a0c3b30080cf500015003a0086
:1045c8001940780083100700a00598000000e0005b
:1045d8003a003200be0c07000000e00039003a0043
:1045e8002b00900060019000f0019000828dbe00c9
:1045f8008984e8000884e9003b003200f0c2b30077
:10460800994f100003003a008904e800e10f5400b4
:10461800350032002b009000ad0c0700fac2b30041
:104628000000e0001d0032002800370069407c00cf
:104638008a4f500004003a0008804400104090005f
:104648000004e000280032000800e00011003200f9
:10465800890078000b007800140307000000e000d0
:104668000c0032000c04e0001a00320089007800c7
:104678000b007800fffc07000000e00017003a007c
:10468800890078000b007800080307000000e000ac
:1046980014003a000804e8008884440009007800ff
:1046a800910f070000047800e10f4400dfff3a0093
:1046b8000d0037008004eb000b0037008004eb008e
:1046c800090037008004eb00070037008004eb0086
:1046d800050037008004eb00030037008004eb007e
:1046e800010037008004eb00090078004f067800cd
:0c46f8004f05be004f04be00000006008d
:020000040000fa
:104704001400fa00889fbe00000478000000eb004b
:10471400c0bf9f00480890006e0c0700800078001e
:104724000000eb000100e00058003a0098189000e7
:104734000108a30055003200480890008000eb00f7
:10474400c80407000004e00005003a00480890008f
:1047540091c0b300017098000080eb004b0037005b
:104764004808900011002000be0407000004e00087
:1047740005003a004808900091c0b3000170980009
:104784000080eb004100370068019000f8019000c0
:1047940048089000d13a07004808900090bf9f0055
:1047a4001800be00f0b79f0081bf9f00a0bf9f000c
:1047b400b1bf9f00780a9000e88157006c815700d0
:1047c400e68057007280570097f90700800478004c
:1047d4000900e00005003a0048089000d1c1b30088
:1047e400017098000080eb0028003700b15380006e
:1047f4000100e0000200320078805700010001004f
:10480400dfb09700b10c98004fb09700c00c98002f
:104814000808900098089000e00c9800f10c9800ab
:1048240088609000b14c98004808900020109000d7
:10483400c00090000100a0004100980048089000ca
:104844008000eb00870407000004e0000b00320046
:10485400c80c900009007800600e0700807498006e
:1048640048089000807090000080eb000104e00094
:1048740006003a000000eb000400370048089000ee
:1048840091c0b300017098000080eb004f04be009b
:084894000080fa00000006009c
:020000040000fa
:10489c000800fa00889fbe008a9fbe008c1f78001b
:1048ac00000678000205be006c689000e14f5000d5
:1048bc0014003200e34f500009003a00f0ff2f00c3
:1048cc00f1ff200090bf9f00a1bf9f0072ff2f003f
:1048dc00f3ff2000f2b79f0083bf9f001100370049
:1048ec00f0ff2f000100200090bf9f00a1bf9f0090
:1048fc0072ff2f0003002000f2b79f0083bf9f00c0
:10490c0008003700f0ff2f000100200090bf9f002f
:10491c00a1bf9f0072ff200003002000f2b79f0090
:10492c0083bf9f00e10f5500e08f5d0006003e0045
:10493c002a0020000b0020000a04be0007003700ec
:10494c000a04be0005003700e00f5500e08f5d0043
:10495c00fbff3a000a04be00290037000801be0024
:10496c000c0078005b3a07001fb99700afb99700ad
:10497c00820f5000838f58001e003200e00f500051
:10498c00e08f58001e0032007fb197008fb997005e
:10499c00820f5000838f58000a00320061044400db
:1049ac00e0844c002c089000bc0890006200400091
:1049bc00e0804800800f5400818f5c0004003100bf
:1049cc0005003700280020000900200002003700f5
:1049dc0028002000090020008a0f54008b8f5c00f7
:1049ec0006003200e00f5400e08f5c00dbff3a0061
:1049fc00030037006044b800010037006044b80081
:104a0c000800be004f0678004f05be004f04be00e4
:084a1c000080fa000000060012
:020000040000fa
:104a2400ea874700889fbe008a9fbe008c9fbe0015
:104a34008e1f78000004be00820678006d68900026
:104a4400e14f500014003200e34f500009003a00d7
:104a540080ff2f00f1ff2000d0b79f00e1b79f0037
:104a6400f2ff2f00f3ff2000f2b79f0083bf9f00e7
:104a74001100370080ff2f0001002000d0b79f00f5
:104a8400e1b79f00f2ff2f0003002000f2b79f0060
:104a940083bf9f000800370080ff20000100200032
:104aa400d0b79f00e1b79f00f2ff2f000300200062
:104ab400f2b79f0083bf9f001c022000fe0020006d
:104ac400e10f5400e08f5c0002003e00220037003a
:104ad4000a04be000801be000d007800ff3907007b
:104ae4000005be007fb097008fb89700800f550077
:104af400818f5d002400320012002000030020009a
:104b0400820f5500838f5d00210036000e06780069
:104b14005fb09700efb097008a0f50008b8f58005a
:104b2400010036000006eb008040eb006022b80074
:104b34000801be000d007800d1f007007fb1970096
:104b44008fb99700820f5000838f580012003200f3
:104b54000c00e000deff320011c0b3006022b80098
:104b64006011b8000d007800c5f007000c00780053
:104b74004f0778004f06be004f05be004f04be002d
:104b8400af00b10000000600fc002000f2ff370077
:104b94001c022000f0ff37009c002000eeff3700cd
:020000040000fa
:104ba40000427800c07980008481fb00d008900026
:104bb400c808de00e3806000838f500006003a00de
:104bc400900090000198a30003003a00105488005c
:104bd40010c0b3004f0037005b6aef00b279800069
:104be4000040eb000200e0004a0032002200900086
:104bf4008000eb000000e00001003200a000900003
:104c04008002eb000100e000340032005108900003
:104c14004800de0063006000808f51002c003a00e1
:104c2400e24f520019003200e34f520008003200f4
:104c34000404e00026003a00110090000098a3004c
:104c440023003a001154880010c0b300310037002b
:104c5400110090000098a30006003200310090007b
:104c64000000e0001a003a0021009000b000980013
:104c740017003700310090000000e00014003a00f3
:104c84001154880010c0b3002200370011009000b6
:104c94000098a3000e003a001100900000c8a30081
:104ca4000b003a005b6aec005acabf005b4ae3009f
:104cb40007003600b2a5200012417800a0a520000c
:104cc400024878001154880010c0b3001100370066
:104cd400910078000100e00009003a001201780018
:104ce4000200e0000a0032002200900085007800f3
:104cf4000000e000c3ff3200a0009000c1ff3700b5
:104d04000200e000bfff3a000040eb000100370062
:084d14000040eb000000060066
:020000040000fa
:104d1c004200fa00881f78008000eb00e1bf9f0082
:104d2c000041eb00800078006e80570007fe070002
:104d3c00000478000800e00005003a0011c2b3003e
:104d4c00d07b8000017098000080eb00470037009a
:104d5c001fb89700afb89700c0bf9f00d1bf9f008e
:104d6c003fb89700b010900040109000e100900008
:104d7c00010001000004e00005003200a1c1b300f5
:104d8c003fb89700017098000080eb0037003700a7
:104d9c008040eb00080078003cfa07000004e000bb
:104dac0002003200e34f500005003a0031c1b3005d
:104dbc003fb89700017098000080eb002b00370083
:104dcc00e14f500017003a001fb89700afb897009a
:104ddc00c0bf9f00d1bf9f000000eb00e0bf9f0051
:104dec00c1fb2f008f8040000800780019050700d8
:104dfc00270020000003eb008002eb0064825700c8
:104e0c00e88157007d815700c1fb2f008f80400047
:104e1c006e80570073f70700800078000100e000f7
:104e2c000f003a00dfa8970081bf9f0041012000ce
:104e3c006fa897000048a30009003a0012c0b30005
:104e4c00f0805700c0fb2f000f00400084fb0700d0
:104e5c00800078000000eb000100e000030032004d
:104e6c003fb89700017098000080eb004f04780069
:084e7c000080fa0000000600ae
:020000040000fa
:104e8400889fbe008a9fbe008c1f780081447800f2
:104e940082457800030478000445780061c5b300b6
:104ea4000004e0004b00340032ec2000924f10006c
:104eb40048003a008140e80000c2b30063014100a9
:104ec400924f100043003a008140e8006300410023
:104ed40090cf14003f003900ecc040007300400044
:104ee400014878006000b800a0768800b176880098
:104ef4008040eb000200e9000148780063004000b4
:104f04000148780061c66500e10066001001780080
:104f14000200a10001087100757688008676880079
:104f240097768800810e0700c0768800d1768800c5
:104f3400b3ec20000381e800134978000b04e0007f
:104f440002003a008301e800134978005235250035
:104f54002334240022758800337588004075880046
:104f64005175880080768000917680006075880095
:104f74007175880000eb20000048eb00e10066003a
:104f8400c708dd00100178000270a100010871005b
:104f94000000e800094878000000e8000a487800aa
:104fa4000a04e000070032008a40e9008180fb0027
:104fb4000001e8008100410038687800810f50004a
:104fc400fdff3a0011c2b30060ec200001487800f4
:104fd4008040eb00014078004f0678004f05be008a
:084fe4004f04be0000000600ae
:020000040000fa
:104fec00f4874700889fbe008a9fbe008c9fbe003e
:104ffc008e1f7800000578000204be008105780041
:10500c000040eb001a04e00049003200e00f5100b0
:10501c00e08f59000d003200484ede000d002000dc
:10502c004048de0001002000804678004849dd0041
:10503c004840de0000007100c848de0000477800e0
:10504c0050c0b30080f79f00040037000040eb0015
:10505c000404e000f0ff3a0035003700a0c2b300b2
:10506c00c0e79f000040eb00d0e79f00ece79f00fb
:10507c00fde79f008eef9f0098ef9f00a0ef9f0031
:10508c00b0ef9f0011c0b300c1ef9f00d0ef9f00a5
:10509c00a65280008003eb008b027800a4c0b30002
:1050ac00fc81570000417800824078001a4078005b
:1050bc0071ff0700e0ef9f000004e00003003200e6
:1050cc0009003700f52b07001830070002fe2f00ef
:1050dc000f014100f28057001a4078001e090700aa
:1050ec000004e000f7ff32006fe897000004e000d6
:1050fc000400320011c5b300814f50000b003a0080
:10510c000200370010c0b300090037000a00780015
:10511c00500707000ff197000241e90082f79f004a
:10512c00ceff3a000040eb00010037000040eb00de
:10513c004f0778004f06be004f05be004f04be005f
:08514c004f01b1000000060054
:020000040000fa
:105154001600fa00889fbe008a9fbe008c1f78004c
:1051640082047800030578000404780082bf2a00d2
:105174000300200082b79f0093b79f000fb19700f0
:105184009fb1970092bf9f00a3bf9f000800e0005b
:1051940001003a007c8457000006eb008005eb0018
:1051a400880278000b0278008a01780009017800ef
:1051b400d02d0200000000000000e00036003200a4
:1051c4001802be008200200003002000c02120003d
:1051d400010020007c3d0200000000000000e0000f
:1051e4001e003a001802be001fb89700afb897001f
:1051f400e00f5000e08f58000f0032000400be00a2
:105204001fb99700afb99700820f5200838f5a00dd
:10521400090039000b00e0001c003a00284190000e
:105224009b0020000204e000010035004b00200038
:10523400a8049000daff3700c20020000300200019
:1052440080202000010020007c3d020000000000be
:105254000000e0000f0032001c002000e30f5500a6
:105264000d00360028019000020555006305550025
:105274000a85440024002000050020003800420074
:10528400a8804a00e3044100c5ff3700ccff2f008b
:10529400010037000086eb000c0078004f06780010
:1052a4004f05be004f04be000080fa000000060057
:020000040000fa
:1052b4003c00fa00889fbe00800478000104780056
:1052c4008040eb0008007800f2f807000004e000da
:1052d40005003a002900900031c1b3000170980024
:1052e4000080eb0043003700e14f500019003a0002
:1052f4001900be0090a79f00a1a79f000000eb002b
:10530400b0a79f0081fc2f008f8040000800780028
:10531400d203070027002000f60320008002eb00e0
:1053240064fc2f000f02420023fc2f008f814100f8
:105334007181570081fc2f008f80400009007800a4
:105344002af607000000e000260032000080eb008f
:1053540028003700e34f50001d003a001841900028
:105364000000eb00e1c2b300814f510021003a007c
:105374001900be0090a79f00a1a79f000000eb00aa
:10538400b0a79f001400200063fc2f008f81410010
:1053940022fc2f000f01410001fc2f008f804000f0
:1053a40009007800a0f60700800078000080eb0078
:1053b4000fa197000200e0000e003a0001007800ff
:1053c400053b0700808cbe000000eb00090037009d
:1053d4002900900031c1b300017098000080eb00f7
:1053e400040037000fa897009fa89700808cbe0088
:1053f4000000eb004f04be000080fa00000006002d
:020000040000fa
:10540400ec874700889fbe008a9fbe008c9fbe0029
:105414008e1f7800804678000147780082f79f004d
:1054240003067800db53800009f120000004eb0040
:10543400090578004340dd00660040006a007800fa
:105444000018a300370032004340dd00660040002e
:105454006a0078000058a30002003a0099cf1600b1
:1054640030003a004340dd00660040006a007800e6
:105474000048a30003003a00194090008e4f5000ea
:1054840028003a004340dd00660040006a007800ce
:105494000038a30004003a00294090008ff09700e0
:1054a400814f50001f003a000b4890000080fb0021
:1054b4009b489000c808dd0080807000c1b79f0041
:1054c400ab4890008180fb003b4890004800dd0021
:1054d40000807000d0b79f00cdef9f00deef9f00eb
:1054e4000ff09700e0ef9f008400200005002000eb
:1054f400788157009107200000c0eb00520a070092
:105504000004e00007003a004344dd0040f12000bd
:105514000000440010409000004e780010c0b3001a
:10552400050037000804e800e8844400e20f540052
:10553400c0ff3a000040eb004f0778004f06be0062
:105544004f05be004f04be00cf00b10000000600ae
:020000040000fa
:10555400889fbe008a9fbe008045780001057800c0
:10556400820478000b4078009b0c0700000478004c
:105574000800e00009003a0030022000744ae2000a
:105584003e003200746aef00f0f020000b4878000f
:105594002a788800f8fc2f000004440028109000aa
:1055a400d0009000888f500002003a008000eb0089
:1055b4005100980008007800c608070080007800b1
:1055c400900020000100e0002c003a0049149800eb
:1055d4009a0078000100e00002003200090078001f
:1055e40001000100aa0090000900780001000100f8
:1055f40080007800600020001100e0001a003a00ea
:10560400110090000008a3001f0032002101900047
:105614008001eb00420c9800530c9800a10090000c
:1056240000202000808f5000170036004002200028
:105634000d00370008007800673907000000e0001b
:1056440009003a00d17b80000100e0000b003a0021
:10565400d87b880068019000f8019000b27b880034
:10566400c37b880005003700f1f020008048eb0080
:1056740012c0b30043a72000824978004f05be0042
:105684004f04be0000000600080078007ef8070002
:0c5694000000e000f4ff3a00e6ff3700e1
:020000040000fa
:1056a0000a00fa00889fbe008a9fbe008c9fbe0041
:1056b000300798004f079800c0002000010020002c
:1056c0001a450200000000000002be0080057800bc
:1056d0008080e8000100a100818747004e0590000e
:1056e0008000eb0042222000030020000a00780026
:1056f000243c020000000000330037000040eb00b3
:10570000504798000a007800b04078002147980080
:10571000b04078003147980010407800404798002a
:1057200063004500104f78004a40900010479800f1
:105730002a409000e84f400004003200140020008e
:105740000004e00005003d00010037008400200057
:105750003e0090000000e000160032001e067800b7
:10576000e60645001e049000ae0490008002eb00a7
:105770008c0178000d0178000800be00d02d0200d9
:10578000000000000000e0000a003200f03d2000b0
:10579000f05488000003eb00d5ea2d000002eb0076
:1057a0008c0178000d0178000800be004033020033
:1057b000000000001e00780080855500e685550039
:1057c0006600400000054500e68f5500cbff3e0017
:1057d0009e2aef00ce0790004f06be004f05be0088
:0c57e0004f04be000080fa00000006002c
:020000040000fa
:1057ec00f4874700889fbe008a9fbe008c9fbe0036
:1057fc008e1f7800000578000204be008105780039
:10580c000040eb001a04e00040003200481ede00ad
:10581c000d0020004018de000100200080467800ba
:10582c004849dd004840de0000007100c848de0039
:10583c000047780050c0b30080f79f0080c2b300cf
:10584c00c0e79f000040eb00d0e79f00ece79f0013
:10585c00fde79f008eef9f0098ef9f00a0ef9f0049
:10586c00b0ef9f0012c0b300c2ef9f00d0ef9f00bb
:10587c00a65280008003eb008b027800a4c0b3001a
:10588c00fc815700804078001a4078007afd0700b0
:10589c00e0ef9f000004e000030032000900370035
:1058ac00fe290700212e070002fe2f000f014100e8
:1058bc00f28057001a407800270707000004e00028
:1058cc00f7ff32006fe897000004e000040032009c
:1058dc0011c5b300814f50000b003a000200370095
:1058ec0010c0b300090037000a0078005905070002
:1058fc000ff197000241e90082f79f00cfff3a00b9
:10590c000040eb00010037000040eb004f0778002f
:10591c004f06be004f05be004f04be004f01b10044
:04592c000000060071
:020000040000fa
:105930000800fa00889fbe008a9fbe008c9fbe00b0
:10594000000578000204be00ca0d90006b6890004c
:10595000e14f500014003200e34f500009003a00bc
:1059600080ff2f00f1ff2000e0b79f00f1b79f00fc
:10597000f4ff2f00f5ff200084bf9f0095bf9f001c
:105980001100370080ff2f0001002000e0b79f00ca
:10599000f1b79f00f4ff2f000500200084bf9f0097
:1059a00095bf9f000800370080ff20000100200005
:1059b000e0b79f00f1b79f00f4ff2f000500200023
:1059c00084bf9f0095bf9f008c0020006d022000c7
:1059d0006a019000fa0190000b0078004036070041
:1059e0000c0178000fba97009fba9700840f5000ff
:1059f000858f58000f0032002b0a9000bb0a9000e0
